{
  "_format": "hh-sol-artifact-1",
  "contractName": "SimpleBridge",
  "sourceName": "contracts/SimpleBridge.sol",
  "abi": [
    {
      "inputs": [
        {
          "internalType": "address",
          "name": "tokenAddress",
          "type": "address"
        },
        {
          "internalType": "address",
          "name": "initialOwner",
          "type": "address"
        }
      ],
      "stateMutability": "nonpayable",
      "type": "constructor"
    },
    {
      "inputs": [
        {
          "internalType": "address",
          "name": "owner",
          "type": "address"
        }
      ],
      "name": "OwnableInvalidOwner",
      "type": "error"
    },
    {
      "inputs": [
        {
          "internalType": "address",
          "name": "account",
          "type": "address"
        }
      ],
      "name": "OwnableUnauthorizedAccount",
      "type": "error"
    },
    {
      "anonymous": false,
      "inputs": [
        {
          "indexed": true,
          "internalType": "address",
          "name": "from",
          "type": "address"
        },
        {
          "indexed": true,
          "internalType": "address",
          "name": "to",
          "type": "address"
        },
        {
          "indexed": false,
          "internalType": "uint256",
          "name": "amount",
          "type": "uint256"
        },
        {
          "indexed": false,
          "internalType": "uint256",
          "name": "dstChainId",
          "type": "uint256"
        },
        {
          "indexed": false,
          "internalType": "bytes32",
          "name": "depositId",
          "type": "bytes32"
        }
      ],
      "name": "Deposited",
      "type": "event"
    },
    {
      "anonymous": false,
      "inputs": [
        {
          "indexed": true,
          "internalType": "address",
          "name": "to",
          "type": "address"
        },
        {
          "indexed": false,
          "internalType": "uint256",
          "name": "amount",
          "type": "uint256"
        },
        {
          "indexed": false,
          "internalType": "bytes32",
          "name": "depositId",
          "type": "bytes32"
        }
      ],
      "name": "Fulfilled",
      "type": "event"
    },
    {
      "anonymous": false,
      "inputs": [
        {
          "indexed": true,
          "internalType": "address",
          "name": "previousOwner",
          "type": "address"
        },
        {
          "indexed": true,
          "internalType": "address",
          "name": "newOwner",
          "type": "address"
        }
      ],
      "name": "OwnershipTransferred",
      "type": "event"
    },
    {
      "anonymous": false,
      "inputs": [
        {
          "indexed": true,
          "internalType": "address",
          "name": "relayer",
          "type": "address"
        },
        {
          "indexed": false,
          "internalType": "bool",
          "name": "allowed",
          "type": "bool"
        }
      ],
      "name": "RelayerUpdated",
      "type": "event"
    },
    {
      "inputs": [
        {
          "internalType": "address",
          "name": "to",
          "type": "address"
        },
        {
          "internalType": "uint256",
          "name": "amount",
          "type": "uint256"
        },
        {
          "internalType": "uint256",
          "name": "dstChainId",
          "type": "uint256"
        },
        {
          "internalType": "bytes32",
          "name": "depositId",
          "type": "bytes32"
        }
      ],
      "name": "deposit",
      "outputs": [],
      "stateMutability": "nonpayable",
      "type": "function"
    },
    {
      "inputs": [
        {
          "internalType": "address",
          "name": "to",
          "type": "address"
        },
        {
          "internalType": "uint256",
          "name": "amount",
          "type": "uint256"
        },
        {
          "internalType": "bytes32",
          "name": "depositId",
          "type": "bytes32"
        }
      ],
      "name": "fulfill",
      "outputs": [],
      "stateMutability": "nonpayable",
      "type": "function"
    },
    {
      "inputs": [
        {
          "internalType": "bytes32",
          "name": "",
          "type": "bytes32"
        }
      ],
      "name": "isProcessed",
      "outputs": [
        {
          "internalType": "bool",
          "name": "",
          "type": "bool"
        }
      ],
      "stateMutability": "view",
      "type": "function"
    },
    {
      "inputs": [
        {
          "internalType": "address",
          "name": "",
          "type": "address"
        }
      ],
      "name": "isRelayer",
      "outputs": [
        {
          "internalType": "bool",
          "name": "",
          "type": "bool"
        }
      ],
      "stateMutability": "view",
      "type": "function"
    },
    {
      "inputs": [],
      "name": "owner",
      "outputs": [
        {
          "internalType": "address",
          "name": "",
          "type": "address"
        }
      ],
      "stateMutability": "view",
      "type": "function"
    },
    {
      "inputs": [],
      "name": "renounceOwnership",
      "outputs": [],
      "stateMutability": "nonpayable",
      "type": "function"
    },
    {
      "inputs": [
        {
          "internalType": "address",
          "name": "relayer",
          "type": "address"
        },
        {
          "internalType": "bool",
          "name": "allowed",
          "type": "bool"
        }
      ],
      "name": "setRelayer",
      "outputs": [],
      "stateMutability": "nonpayable",
      "type": "function"
    },
    {
      "inputs": [],
      "name": "token",
      "outputs": [
        {
          "internalType": "contract TrustedToken",
          "name": "",
          "type": "address"
        }
      ],
      "stateMutability": "view",
      "type": "function"
    },
    {
      "inputs": [
        {
          "internalType": "address",
          "name": "newOwner",
          "type": "address"
        }
      ],
      "name": "transferOwnership",
      "outputs": [],
      "stateMutability": "nonpayable",
      "type": "function"
    }
  ],
  "bytecode": "0x60a060405234801561001057600080fd5b506040516107e03803806107e083398101604081905261002f91610129565b806001600160a01b03811661005f57604051631e4fbdf760e01b8152600060048201526024015b60405180910390fd5b610068816100bd565b506001600160a01b0382166100ab5760405162461bcd60e51b8152602060048201526009602482015268546f6b656e5a65726f60b81b6044820152606401610056565b506001600160a01b031660805261015c565b600080546001600160a01b038381166001600160a01b0319831681178455604051919092169283917f8be0079c531659141344cd1fd0a4f28419497f9722a3daafe3b4186f6b6457e09190a35050565b80516001600160a01b038116811461012457600080fd5b919050565b6000806040838503121561013c57600080fd5b6101458361010d565b91506101536020840161010d565b90509250929050565b60805161065b6101856000396000818161017301528181610277015261034c015261065b6000f3fe608060405234801561001057600080fd5b50600436106100935760003560e01c80638da5cb5b116100665780638da5cb5b14610110578063a424e0a914610135578063ecd8dc3a14610148578063f2fde38b1461015b578063fc0c546a1461016e57600080fd5b806311c168961461009857806323aa80d8146100d0578063541d5548146100e5578063715018a614610108575b600080fd5b6100bb6100a6366004610526565b60026020526000908152604090205460ff1681565b60405190151581526020015b60405180910390f35b6100e36100de36600461055b565b610195565b005b6100bb6100f336600461058e565b60016020526000908152604090205460ff1681565b6100e361031c565b6000546001600160a01b03165b6040516001600160a01b0390911681526020016100c7565b6100e36101433660046105b0565b610330565b6100e36101563660046105e9565b610404565b6100e361016936600461058e565b61046b565b61011d7f000000000000000000000000000000000000000000000000000000000000000081565b3360009081526001602052604090205460ff166101e65760405162461bcd60e51b815260206004820152600a6024820152692737ba2932b630bcb2b960b11b60448201526064015b60405180910390fd5b60008181526002602052604090205460ff16156102385760405162461bcd60e51b815260206004820152601060248201526f105b1c9958591e541c9bd8d95cdcd95960821b60448201526064016101dd565b60008181526002602052604090819020805460ff1916600117905551636012669360e11b81526001600160a01b038481166004830152602482018490527f0000000000000000000000000000000000000000000000000000000000000000169063c024cd2690604401600060405180830381600087803b1580156102bb57600080fd5b505af11580156102cf573d6000803e3d6000fd5b505060408051858152602081018590526001600160a01b03871693507fd2c64f79dd7fa4f3e2ed47a43b044d672309b7ee41de0ba9439a7267aa3c5d6892500160405180910390a2505050565b6103246104a9565b61032e60006104d6565b565b6040516342986e1360e01b8152336004820152602481018490527f00000000000000000000000000000000000000000000000000000000000000006001600160a01b0316906342986e1390604401600060405180830381600087803b15801561039857600080fd5b505af11580156103ac573d6000803e3d6000fd5b505060408051868152602081018690529081018490526001600160a01b03871692503391507fc6daf3f44b892b946e8f054dee61a5c544673a355b8ec6fd0ba713e6e67518db9060600160405180910390a350505050565b61040c6104a9565b6001600160a01b038216600081815260016020908152604091829020805460ff191685151590811790915591519182527f4b36b2e66f38ed349bec532105790177f1283bcbc094e6cd48565195d3033c43910160405180910390a25050565b6104736104a9565b6001600160a01b03811661049d57604051631e4fbdf760e01b8152600060048201526024016101dd565b6104a6816104d6565b50565b6000546001600160a01b0316331461032e5760405163118cdaa760e01b81523360048201526024016101dd565b600080546001600160a01b038381166001600160a01b0319831681178455604051919092169283917f8be0079c531659141344cd1fd0a4f28419497f9722a3daafe3b4186f6b6457e09190a35050565b60006020828403121561053857600080fd5b5035919050565b80356001600160a01b038116811461055657600080fd5b919050565b60008060006060848603121561057057600080fd5b6105798461053f565b95602085013595506040909401359392505050565b6000602082840312156105a057600080fd5b6105a98261053f565b9392505050565b600080600080608085870312156105c657600080fd5b6105cf8561053f565b966020860135965060408601359560600135945092505050565b600080604083850312156105fc57600080fd5b6106058361053f565b91506020830135801515811461061a57600080fd5b80915050925092905056fea2646970667358221220fa841dc6bdb85041b9c2221463650bf7f5d7230af83307bc6732daad0c6f7d6364736f6c63430008170033",
  "linkReferences": {},
  "deployedLinkReferences": {}
}