{
  "_format": "hh-sol-artifact-1",
  "contractName": "TrustedToken",
  "sourceName": "contracts/TrustedToken.sol",
  "abi": [
    {
      "inputs": [
        {
          "internalType": "string",
          "name": "name_",
          "type": "string"
        },
        {
          "internalType": "string",
          "name": "symbol_",
          "type": "string"
        },
        {
          "internalType": "address",
          "name": "initialOwner",
          "type": "address"
        }
      ],
      "stateMutability": "nonpayable",
      "type": "constructor"
    },
    {
      "inputs": [
        {
          "internalType": "address",
          "name": "spender",
          "type": "address"
        },
        {
          "internalType": "uint256",
          "name": "allowance",
          "type": "uint256"
        },
        {
          "internalType": "uint256",
          "name": "needed",
          "type": "uint256"
        }
      ],
      "name": "ERC20InsufficientAllowance",
      "type": "error"
    },
    {
      "inputs": [
        {
          "internalType": "address",
          "name": "sender",
          "type": "address"
        },
        {
          "internalType": "uint256",
          "name": "balance",
          "type": "uint256"
        },
        {
          "internalType": "uint256",
          "name": "needed",
          "type": "uint256"
        }
      ],
      "name": "ERC20InsufficientBalance",
      "type": "error"
    },
    {
      "inputs": [
        {
          "internalType": "address",
          "name": "approver",
          "type": "address"
        }
      ],
      "name": "ERC20InvalidApprover",
      "type": "error"
    },
    {
      "inputs": [
        {
          "internalType": "address",
          "name": "receiver",
          "type": "address"
        }
      ],
      "name": "ERC20InvalidReceiver",
      "type": "error"
    },
    {
      "inputs": [
        {
          "internalType": "address",
          "name": "sender",
          "type": "address"
        }
      ],
      "name": "ERC20InvalidSender",
      "type": "error"
    },
    {
      "inputs": [
        {
          "internalType": "address",
          "name": "spender",
          "type": "address"
        }
      ],
      "name": "ERC20InvalidSpender",
      "type": "error"
    },
    {
      "inputs": [
        {
          "internalType": "address",
          "name": "owner",
          "type": "address"
        }
      ],
      "name": "OwnableInvalidOwner",
      "type": "error"
    },
    {
      "inputs": [
        {
          "internalType": "address",
          "name": "account",
          "type": "address"
        }
      ],
      "name": "OwnableUnauthorizedAccount",
      "type": "error"
    },
    {
      "anonymous": false,
      "inputs": [
        {
          "indexed": true,
          "internalType": "address",
          "name": "owner",
          "type": "address"
        },
        {
          "indexed": true,
          "internalType": "address",
          "name": "spender",
          "type": "address"
        },
        {
          "indexed": false,
          "internalType": "uint256",
          "name": "value",
          "type": "uint256"
        }
      ],
      "name": "Approval",
      "type": "event"
    },
    {
      "anonymous": false,
      "inputs": [
        {
          "indexed": true,
          "internalType": "address",
          "name": "previousOwner",
          "type": "address"
        },
        {
          "indexed": true,
          "internalType": "address",
          "name": "newOwner",
          "type": "address"
        }
      ],
      "name": "OwnershipTransferred",
      "type": "event"
    },
    {
      "anonymous": false,
      "inputs": [
        {
          "indexed": true,
          "internalType": "address",
          "name": "from",
          "type": "address"
        },
        {
          "indexed": true,
          "internalType": "address",
          "name": "to",
          "type": "address"
        },
        {
          "indexed": false,
          "internalType": "uint256",
          "name": "value",
          "type": "uint256"
        }
      ],
      "name": "Transfer",
      "type": "event"
    },
    {
      "anonymous": false,
      "inputs": [
        {
          "indexed": true,
          "internalType": "address",
          "name": "account",
          "type": "address"
        },
        {
          "indexed": false,
          "internalType": "bool",
          "name": "trusted",
          "type": "bool"
        }
      ],
      "name": "TrustedUpdated",
      "type": "event"
    },
    {
      "inputs": [
        {
          "internalType": "address",
          "name": "owner",
          "type": "address"
        },
        {
          "internalType": "address",
          "name": "spender",
          "type": "address"
        }
      ],
      "name": "allowance",
      "outputs": [
        {
          "internalType": "uint256",
          "name": "",
          "type": "uint256"
        }
      ],
      "stateMutability": "view",
      "type": "function"
    },
    {
      "inputs": [
        {
          "internalType": "address",
          "name": "spender",
          "type": "address"
        },
        {
          "internalType": "uint256",
          "name": "value",
          "type": "uint256"
        }
      ],
      "name": "approve",
      "outputs": [
        {
          "internalType": "bool",
          "name": "",
          "type": "bool"
        }
      ],
      "stateMutability": "nonpayable",
      "type": "function"
    },
    {
      "inputs": [
        {
          "internalType": "address",
          "name": "account",
          "type": "address"
        }
      ],
      "name": "balanceOf",
      "outputs": [
        {
          "internalType": "uint256",
          "name": "",
          "type": "uint256"
        }
      ],
      "stateMutability": "view",
      "type": "function"
    },
    {
      "inputs": [],
      "name": "decimals",
      "outputs": [
        {
          "internalType": "uint8",
          "name": "",
          "type": "uint8"
        }
      ],
      "stateMutability": "view",
      "type": "function"
    },
    {
      "inputs": [
        {
          "internalType": "address",
          "name": "",
          "type": "address"
        }
      ],
      "name": "isTrusted",
      "outputs": [
        {
          "internalType": "bool",
          "name": "",
          "type": "bool"
        }
      ],
      "stateMutability": "view",
      "type": "function"
    },
    {
      "inputs": [],
      "name": "name",
      "outputs": [
        {
          "internalType": "string",
          "name": "",
          "type": "string"
        }
      ],
      "stateMutability": "view",
      "type": "function"
    },
    {
      "inputs": [],
      "name": "owner",
      "outputs": [
        {
          "internalType": "address",
          "name": "",
          "type": "address"
        }
      ],
      "stateMutability": "view",
      "type": "function"
    },
    {
      "inputs": [],
      "name": "renounceOwnership",
      "outputs": [],
      "stateMutability": "nonpayable",
      "type": "function"
    },
    {
      "inputs": [
        {
          "internalType": "address",
          "name": "account",
          "type": "address"
        },
        {
          "internalType": "bool",
          "name": "trusted",
          "type": "bool"
        }
      ],
      "name": "setTrusted",
      "outputs": [],
      "stateMutability": "nonpayable",
      "type": "function"
    },
    {
      "inputs": [],
      "name": "symbol",
      "outputs": [
        {
          "internalType": "string",
          "name": "",
          "type": "string"
        }
      ],
      "stateMutability": "view",
      "type": "function"
    },
    {
      "inputs": [],
      "name": "totalSupply",
      "outputs": [
        {
          "internalType": "uint256",
          "name": "",
          "type": "uint256"
        }
      ],
      "stateMutability": "view",
      "type": "function"
    },
    {
      "inputs": [
        {
          "internalType": "address",
          "name": "to",
          "type": "address"
        },
        {
          "internalType": "uint256",
          "name": "value",
          "type": "uint256"
        }
      ],
      "name": "transfer",
      "outputs": [
        {
          "internalType": "bool",
          "name": "",
          "type": "bool"
        }
      ],
      "stateMutability": "nonpayable",
      "type": "function"
    },
    {
      "inputs": [
        {
          "internalType": "address",
          "name": "from",
          "type": "address"
        },
        {
          "internalType": "address",
          "name": "to",
          "type": "address"
        },
        {
          "internalType": "uint256",
          "name": "value",
          "type": "uint256"
        }
      ],
      "name": "transferFrom",
      "outputs": [
        {
          "internalType": "bool",
          "name": "",
          "type": "bool"
        }
      ],
      "stateMutability": "nonpayable",
      "type": "function"
    },
    {
      "inputs": [
        {
          "internalType": "address",
          "name": "newOwner",
          "type": "address"
        }
      ],
      "name": "transferOwnership",
      "outputs": [],
      "stateMutability": "nonpayable",
      "type": "function"
    },
    {
      "inputs": [
        {
          "internalType": "address",
          "name": "from",
          "type": "address"
        },
        {
          "internalType": "uint256",
          "name": "amount",
          "type": "uint256"
        }
      ],
      "name": "trustedBurn",
      "outputs": [],
      "stateMutability": "nonpayable",
      "type": "function"
    },
    {
      "inputs": [
        {
          "internalType": "address",
          "name": "to",
          "type": "address"
        },
        {
          "internalType": "uint256",
          "name": "amount",
          "type": "uint256"
        }
      ],
      "name": "trustedMint",
      "outputs": [],
      "stateMutability": "nonpayable",
      "type": "function"
    }
  ],
  "bytecode": "0x60806040523480156200001157600080fd5b5060405162000e6238038062000e628339810160408190526200003491620001b5565b8083836003620000458382620002d3565b506004620000548282620002d3565b5050506001600160a01b0381166200008657604051631e4fbdf760e01b81526000600482015260240160405180910390fd5b62000091816200009b565b505050506200039f565b600580546001600160a01b038381166001600160a01b0319831681179093556040519116919082907f8be0079c531659141344cd1fd0a4f28419497f9722a3daafe3b4186f6b6457e090600090a35050565b634e487b7160e01b600052604160045260246000fd5b600082601f8301126200011557600080fd5b81516001600160401b0380821115620001325762000132620000ed565b604051601f8301601f19908116603f011681019082821181831017156200015d576200015d620000ed565b81604052838152602092508660208588010111156200017b57600080fd5b600091505b838210156200019f578582018301518183018401529082019062000180565b6000602085830101528094505050505092915050565b600080600060608486031215620001cb57600080fd5b83516001600160401b0380821115620001e357600080fd5b620001f18783880162000103565b945060208601519150808211156200020857600080fd5b50620002178682870162000103565b604086015190935090506001600160a01b03811681146200023757600080fd5b809150509250925092565b600181811c908216806200025757607f821691505b6020821081036200027857634e487b7160e01b600052602260045260246000fd5b50919050565b601f821115620002ce576000816000526020600020601f850160051c81016020861015620002a95750805b601f850160051c820191505b81811015620002ca57828155600101620002b5565b5050505b505050565b81516001600160401b03811115620002ef57620002ef620000ed565b620003078162000300845462000242565b846200027e565b602080601f8311600181146200033f5760008415620003265750858301515b600019600386901b1c1916600185901b178555620002ca565b600085815260208120601f198616915b8281101562000370578886015182559484019460019091019084016200034f565b50858210156200038f5787850151600019600388901b60f8161c191681555b5050505050600190811b01905550565b610ab380620003af6000396000f3fe608060405234801561001057600080fd5b50600436106101005760003560e01c80638da5cb5b11610097578063c024cd2611610066578063c024cd2614610219578063dd62ed3e1461022c578063f2fde38b14610265578063f32a12ac1461027857600080fd5b80638da5cb5b146101c057806395d89b41146101db57806396d64879146101e3578063a9059cbb1461020657600080fd5b8063313ce567116100d3578063313ce5671461016b57806342986e131461017a57806370a082311461018f578063715018a6146101b857600080fd5b806306fdde0314610105578063095ea7b31461012357806318160ddd1461014657806323b872dd14610158575b600080fd5b61010d61028b565b60405161011a91906108c0565b60405180910390f35b61013661013136600461092b565b61031d565b604051901515815260200161011a565b6002545b60405190815260200161011a565b610136610166366004610955565b610337565b6040516012815260200161011a565b61018d61018836600461092b565b61035b565b005b61014a61019d366004610991565b6001600160a01b031660009081526020819052604090205490565b61018d6103ba565b6005546040516001600160a01b03909116815260200161011a565b61010d6103ce565b6101366101f1366004610991565b60066020526000908152604090205460ff1681565b61013661021436600461092b565b6103dd565b61018d61022736600461092b565b6103eb565b61014a61023a3660046109b3565b6001600160a01b03918216600090815260016020908152604080832093909416825291909152205490565b61018d610273366004610991565b610441565b61018d6102863660046109e6565b61047f565b60606003805461029a90610a22565b80601f01602080910402602001604051908101604052809291908181526020018280546102c690610a22565b80156103135780601f106102e857610100808354040283529160200191610313565b820191906000526020600020905b8154815290600101906020018083116102f657829003601f168201915b5050505050905090565b60003361032b8185856104e6565b60019150505b92915050565b6000336103458582856104f8565b610350858585610577565b506001949350505050565b3360009081526006602052604090205460ff166103ac5760405162461bcd60e51b815260206004820152600a602482015269139bdd151c9d5cdd195960b21b60448201526064015b60405180910390fd5b6103b682826105d6565b5050565b6103c261060c565b6103cc6000610639565b565b60606004805461029a90610a22565b60003361032b818585610577565b3360009081526006602052604090205460ff166104375760405162461bcd60e51b815260206004820152600a602482015269139bdd151c9d5cdd195960b21b60448201526064016103a3565b6103b6828261068b565b61044961060c565b6001600160a01b03811661047357604051631e4fbdf760e01b8152600060048201526024016103a3565b61047c81610639565b50565b61048761060c565b6001600160a01b038216600081815260066020908152604091829020805460ff191685151590811790915591519182527f547820db618200fb54f457140ffaf92a642299d95533c33c155b13ba68203f96910160405180910390a25050565b6104f383838360016106c1565b505050565b6001600160a01b03838116600090815260016020908152604080832093861683529290522054600019811015610571578181101561056257604051637dc7a0d960e11b81526001600160a01b038416600482015260248101829052604481018390526064016103a3565b610571848484840360006106c1565b50505050565b6001600160a01b0383166105a157604051634b637e8f60e11b8152600060048201526024016103a3565b6001600160a01b0382166105cb5760405163ec442f0560e01b8152600060048201526024016103a3565b6104f3838383610796565b6001600160a01b03821661060057604051634b637e8f60e11b8152600060048201526024016103a3565b6103b682600083610796565b6005546001600160a01b031633146103cc5760405163118cdaa760e01b81523360048201526024016103a3565b600580546001600160a01b038381166001600160a01b0319831681179093556040519116919082907f8be0079c531659141344cd1fd0a4f28419497f9722a3daafe3b4186f6b6457e090600090a35050565b6001600160a01b0382166106b55760405163ec442f0560e01b8152600060048201526024016103a3565b6103b660008383610796565b6001600160a01b0384166106eb5760405163e602df0560e01b8152600060048201526024016103a3565b6001600160a01b03831661071557604051634a1406b160e11b8152600060048201526024016103a3565b6001600160a01b038085166000908152600160209081526040808320938716835292905220829055801561057157826001600160a01b0316846001600160a01b03167f8c5be1e5ebec7d5bd14f71427d1e84f3dd0314c0f7b2291e5b200ac8c7c3b9258460405161078891815260200190565b60405180910390a350505050565b6001600160a01b0383166107c15780600260008282546107b69190610a5c565b909155506108339050565b6001600160a01b038316600090815260208190526040902054818110156108145760405163391434e360e21b81526001600160a01b038516600482015260248101829052604481018390526064016103a3565b6001600160a01b03841660009081526020819052604090209082900390555b6001600160a01b03821661084f5760028054829003905561086e565b6001600160a01b03821660009081526020819052604090208054820190555b816001600160a01b0316836001600160a01b03167fddf252ad1be2c89b69c2b068fc378daa952ba7f163c4a11628f55a4df523b3ef836040516108b391815260200190565b60405180910390a3505050565b60006020808352835180602085015260005b818110156108ee578581018301518582016040015282016108d2565b506000604082860101526040601f19601f8301168501019250505092915050565b80356001600160a01b038116811461092657600080fd5b919050565b6000806040838503121561093e57600080fd5b6109478361090f565b946020939093013593505050565b60008060006060848603121561096a57600080fd5b6109738461090f565b92506109816020850161090f565b9150604084013590509250925092565b6000602082840312156109a357600080fd5b6109ac8261090f565b9392505050565b600080604083850312156109c657600080fd5b6109cf8361090f565b91506109dd6020840161090f565b90509250929050565b600080604083850312156109f957600080fd5b610a028361090f565b915060208301358015158114610a1757600080fd5b809150509250929050565b600181811c90821680610a3657607f821691505b602082108103610a5657634e487b7160e01b600052602260045260246000fd5b50919050565b8082018082111561033157634e487b7160e01b600052601160045260246000fdfea26469706673582212201028855a2857e43b393ad8b15410525738fdd99e3edd6d80143825be177d500664736f6c63430008170033",
  "linkReferences": {},
  "deployedLinkReferences": {}
}